{
  "_format": "hh-sol-artifact-1",
  "contractName": "Splitwise",
  "sourceName": "contracts/mycontract.sol",
  "abi": [
    {
      "anonymous": false,
      "inputs": [
        {
          "indexed": false,
          "internalType": "address",
          "name": "debtor",
          "type": "address"
        },
        {
          "indexed": false,
          "internalType": "address",
          "name": "creditor",
          "type": "address"
        },
        {
          "indexed": false,
          "internalType": "uint32",
          "name": "amount",
          "type": "uint32"
        }
      ],
      "name": "AddNewIOU",
      "type": "event"
    },
    {
      "anonymous": false,
      "inputs": [
        {
          "indexed": false,
          "internalType": "address",
          "name": "user",
          "type": "address"
        }
      ],
      "name": "AddNewUser",
      "type": "event"
    },
    {
      "anonymous": false,
      "inputs": [
        {
          "indexed": false,
          "internalType": "address",
          "name": "debtor",
          "type": "address"
        },
        {
          "indexed": false,
          "internalType": "address",
          "name": "creditor",
          "type": "address"
        },
        {
          "indexed": false,
          "internalType": "uint32",
          "name": "amount",
          "type": "uint32"
        }
      ],
      "name": "UpdateIOU",
      "type": "event"
    },
    {
      "inputs": [
        {
          "internalType": "address",
          "name": "debtor",
          "type": "address"
        },
        {
          "internalType": "address",
          "name": "creditor",
          "type": "address"
        },
        {
          "internalType": "uint32",
          "name": "amount",
          "type": "uint32"
        },
        {
          "internalType": "address[]",
          "name": "directPath",
          "type": "address[]"
        },
        {
          "internalType": "address[]",
          "name": "indirectPath",
          "type": "address[]"
        }
      ],
      "name": "add_IOU",
      "outputs": [],
      "stateMutability": "nonpayable",
      "type": "function"
    },
    {
      "inputs": [
        {
          "internalType": "address",
          "name": "debtor",
          "type": "address"
        },
        {
          "internalType": "address",
          "name": "creditor",
          "type": "address"
        }
      ],
      "name": "lookup",
      "outputs": [
        {
          "internalType": "uint32",
          "name": "ret",
          "type": "uint32"
        }
      ],
      "stateMutability": "view",
      "type": "function"
    }
  ],
  "bytecode": "0x608060405234801561001057600080fd5b50611282806100206000396000f3fe608060405234801561001057600080fd5b50600436106100365760003560e01c80630598fe071461003b578063713584a614610057575b600080fd5b61005560048036038101906100509190610e61565b610087565b005b610071600480360381019061006c9190610f14565b610a3f565b60405161007e9190610f63565b60405180910390f35b6100c66040518060400160405280600c81526020017f48692c20646562746f723a20000000000000000000000000000000000000000081525086610ad5565b60008251036108be5760008151036101b5576101166040518060400160405280600781526020017f6e657720494f5500000000000000000000000000000000000000000000000000815250610b71565b826000808773ffffffffffffffffffffffffffffffffffffffff1673ffffffffffffffffffffffffffffffffffffffff16815260200190815260200160002060008673ffffffffffffffffffffffffffffffffffffffff1673ffffffffffffffffffffffffffffffffffffffff16815260200190815260200160002060006101000a81548163ffffffff021916908363ffffffff1602179055506108b9565b6002815103610566576000808573ffffffffffffffffffffffffffffffffffffffff1673ffffffffffffffffffffffffffffffffffffffff16815260200190815260200160002060008673ffffffffffffffffffffffffffffffffffffffff1673ffffffffffffffffffffffffffffffffffffffff16815260200190815260200160002060009054906101000a900463ffffffff1663ffffffff168363ffffffff161061046a5761029a6040518060400160405280600781526020017f7265706c61636500000000000000000000000000000000000000000000000000815250610b71565b6000808573ffffffffffffffffffffffffffffffffffffffff1673ffffffffffffffffffffffffffffffffffffffff16815260200190815260200160002060008673ffffffffffffffffffffffffffffffffffffffff1673ffffffffffffffffffffffffffffffffffffffff16815260200190815260200160002060009054906101000a900463ffffffff16836103319190610fad565b6000808773ffffffffffffffffffffffffffffffffffffffff1673ffffffffffffffffffffffffffffffffffffffff16815260200190815260200160002060008673ffffffffffffffffffffffffffffffffffffffff1673ffffffffffffffffffffffffffffffffffffffff16815260200190815260200160002060006101000a81548163ffffffff021916908363ffffffff16021790555060008060008673ffffffffffffffffffffffffffffffffffffffff1673ffffffffffffffffffffffffffffffffffffffff16815260200190815260200160002060008773ffffffffffffffffffffffffffffffffffffffff1673ffffffffffffffffffffffffffffffffffffffff16815260200190815260200160002060006101000a81548163ffffffff021916908363ffffffff160217905550610561565b6104a86040518060400160405280600581526020017f7265706179000000000000000000000000000000000000000000000000000000815250610b71565b826000808773ffffffffffffffffffffffffffffffffffffffff1673ffffffffffffffffffffffffffffffffffffffff16815260200190815260200160002060008673ffffffffffffffffffffffffffffffffffffffff1673ffffffffffffffffffffffffffffffffffffffff16815260200190815260200160002060008282829054906101000a900463ffffffff166105429190610fad565b92506101000a81548163ffffffff021916908363ffffffff1602179055505b6108b8565b6002815111156108b7576105ae6040518060400160405280600581526020017f6379636c65000000000000000000000000000000000000000000000000000000815250610b71565b600080600090505b600183516105c49190610fef565b8110156106d35760008060008584815181106105e3576105e2611023565b5b602002602001015173ffffffffffffffffffffffffffffffffffffffff1673ffffffffffffffffffffffffffffffffffffffff1681526020019081526020016000206000856001856106359190611052565b8151811061064657610645611023565b5b602002602001015173ffffffffffffffffffffffffffffffffffffffff1673ffffffffffffffffffffffffffffffffffffffff16815260200190815260200160002060009054906101000a900463ffffffff169050600082036106a7578092505b8063ffffffff168363ffffffff1611156106bf578092505b5080806106cb90611086565b9150506105b6565b508363ffffffff168163ffffffff1611156106ec578390505b60005b600183516106fd9190610fef565b81101561080f578160008085848151811061071b5761071a611023565b5b602002602001015173ffffffffffffffffffffffffffffffffffffffff1673ffffffffffffffffffffffffffffffffffffffff16815260200190815260200160002060008560018561076d9190611052565b8151811061077e5761077d611023565b5b602002602001015173ffffffffffffffffffffffffffffffffffffffff1673ffffffffffffffffffffffffffffffffffffffff16815260200190815260200160002060008282829054906101000a900463ffffffff166107de9190610fad565b92506101000a81548163ffffffff021916908363ffffffff160217905550808061080790611086565b9150506106ef565b50808461081c9190610fad565b6000808873ffffffffffffffffffffffffffffffffffffffff1673ffffffffffffffffffffffffffffffffffffffff16815260200190815260200160002060008773ffffffffffffffffffffffffffffffffffffffff1673ffffffffffffffffffffffffffffffffffffffff16815260200190815260200160002060006101000a81548163ffffffff021916908363ffffffff160217905550505b5b5b6109bf565b60028251036109be576109056040518060400160405280600881526020017f6f7765206d6f7265000000000000000000000000000000000000000000000000815250610b71565b826000808773ffffffffffffffffffffffffffffffffffffffff1673ffffffffffffffffffffffffffffffffffffffff16815260200190815260200160002060008673ffffffffffffffffffffffffffffffffffffffff1673ffffffffffffffffffffffffffffffffffffffff16815260200190815260200160002060008282829054906101000a900463ffffffff1661099f91906110ce565b92506101000a81548163ffffffff021916908363ffffffff1602179055505b5b6109fd6040518060400160405280600381526020017f4279650000000000000000000000000000000000000000000000000000000000815250610b71565b7fb6e219251725c9f9b67f8db03fcc02bf384283687f4c44e0e1c639360bbabbc6858585604051610a3093929190611115565b60405180910390a15050505050565b60008060008473ffffffffffffffffffffffffffffffffffffffff1673ffffffffffffffffffffffffffffffffffffffff16815260200190815260200160002060008373ffffffffffffffffffffffffffffffffffffffff1673ffffffffffffffffffffffffffffffffffffffff16815260200190815260200160002060009054906101000a900463ffffffff16905092915050565b610b6d8282604051602401610aeb9291906111cb565b6040516020818303038152906040527f319af333000000000000000000000000000000000000000000000000000000007bffffffffffffffffffffffffffffffffffffffffffffffffffffffff19166020820180517bffffffffffffffffffffffffffffffffffffffffffffffffffffffff8381831617835250505050610c0a565b5050565b610c0781604051602401610b8591906111fb565b6040516020818303038152906040527f41304fac000000000000000000000000000000000000000000000000000000007bffffffffffffffffffffffffffffffffffffffffffffffffffffffff19166020820180517bffffffffffffffffffffffffffffffffffffffffffffffffffffffff8381831617835250505050610c0a565b50565b610c2181610c19610c24610c45565b63ffffffff16565b50565b60006a636f6e736f6c652e6c6f679050600080835160208501845afa505050565b610c50819050919050565b610c5861121d565b565b6000604051905090565b600080fd5b600080fd5b600073ffffffffffffffffffffffffffffffffffffffff82169050919050565b6000610c9982610c6e565b9050919050565b610ca981610c8e565b8114610cb457600080fd5b50565b600081359050610cc681610ca0565b92915050565b600063ffffffff82169050919050565b610ce581610ccc565b8114610cf057600080fd5b50565b600081359050610d0281610cdc565b92915050565b600080fd5b6000601f19601f8301169050919050565b7f4e487b7100000000000000000000000000000000000000000000000000000000600052604160045260246000fd5b610d5682610d0d565b810181811067ffffffffffffffff82111715610d7557610d74610d1e565b5b80604052505050565b6000610d88610c5a565b9050610d948282610d4d565b919050565b600067ffffffffffffffff821115610db457610db3610d1e565b5b602082029050602081019050919050565b600080fd5b6000610ddd610dd884610d99565b610d7e565b90508083825260208201905060208402830185811115610e0057610dff610dc5565b5b835b81811015610e295780610e158882610cb7565b845260208401935050602081019050610e02565b5050509392505050565b600082601f830112610e4857610e47610d08565b5b8135610e58848260208601610dca565b91505092915050565b600080600080600060a08688031215610e7d57610e7c610c64565b5b6000610e8b88828901610cb7565b9550506020610e9c88828901610cb7565b9450506040610ead88828901610cf3565b935050606086013567ffffffffffffffff811115610ece57610ecd610c69565b5b610eda88828901610e33565b925050608086013567ffffffffffffffff811115610efb57610efa610c69565b5b610f0788828901610e33565b9150509295509295909350565b60008060408385031215610f2b57610f2a610c64565b5b6000610f3985828601610cb7565b9250506020610f4a85828601610cb7565b9150509250929050565b610f5d81610ccc565b82525050565b6000602082019050610f786000830184610f54565b92915050565b7f4e487b7100000000000000000000000000000000000000000000000000000000600052601160045260246000fd5b6000610fb882610ccc565b9150610fc383610ccc565b9250828203905063ffffffff811115610fdf57610fde610f7e565b5b92915050565b6000819050919050565b6000610ffa82610fe5565b915061100583610fe5565b925082820390508181111561101d5761101c610f7e565b5b92915050565b7f4e487b7100000000000000000000000000000000000000000000000000000000600052603260045260246000fd5b600061105d82610fe5565b915061106883610fe5565b92508282019050808211156110805761107f610f7e565b5b92915050565b600061109182610fe5565b91507fffffffffffffffffffffffffffffffffffffffffffffffffffffffffffffffff82036110c3576110c2610f7e565b5b600182019050919050565b60006110d982610ccc565b91506110e483610ccc565b9250828201905063ffffffff811115611100576110ff610f7e565b5b92915050565b61110f81610c8e565b82525050565b600060608201905061112a6000830186611106565b6111376020830185611106565b6111446040830184610f54565b949350505050565b600081519050919050565b600082825260208201905092915050565b60005b8381101561118657808201518184015260208101905061116b565b60008484015250505050565b600061119d8261114c565b6111a78185611157565b93506111b7818560208601611168565b6111c081610d0d565b840191505092915050565b600060408201905081810360008301526111e58185611192565b90506111f46020830184611106565b9392505050565b600060208201905081810360008301526112158184611192565b905092915050565b7f4e487b7100000000000000000000000000000000000000000000000000000000600052605160045260246000fdfea26469706673582212204329501e992db24bf28eee4d4cddf8d7ddd788e2c14ac517d135bbfa1d4533d564736f6c63430008110033",
  "linkReferences": {},
  "deployedLinkReferences": {}
}